[
  {
    "label": "case1",
    "tx": {
      "nonce": 0,
      "gasPrice": "1",
      "gas": "21000",
      "chainId": 1,
      "to": "0x0000000000000000000000000000000000000aBc",
      "data": "0x"
    },
    "signed": "0xf85f8001825208940000000000000000000000000000000000000abc808025a004884fc0a38d99a11cb801bb435b6cb86537923c1522f9874bb6e0a83099357aa02baf96f5a69a24f3c6a6b541293ff5b94e7e8627c02cb89776ae2472c3c6318b",
    "hash": "0xa2dea530e71d576c65ca20e410e5701de5c8d65517108b44a8ab4aa374ff0ec1"
  },
  {
    "label": "case2",
    "tx": {
      "nonce": 5,
      "gasPrice": "5000000000",
      "gas": "300000",
      "chainId": 8453,
      "to": "0x0000000000000000000000000000000000000aBc",
      "data": "0x1234"
    },
    "signed": "0xf8690585012a05f200830493e0940000000000000000000000000000000000000abc8082123482422da0dca6634b71830c8a886ddf2cebc84e11fa9c56b87e78bad69a3280521ce587b9a00ba2d8869ff8cb512c9612cc2ddb3c9d774dcea31ef6e52d9a51a2cddfae667b",
    "hash": "0x999e5860e9f7845bdeff76e09aa5f4fc4c2936a1511f83b7a88bd3af72da48d8"
  },
  {
    "label": "case3",
    "tx": {
      "nonce": 300,
      "gasPrice": "123456789",
      "gas": "21000",
      "chainId": 31337,
      "to": "0x0000000000000000000000000000000000000aBc",
      "data": "0x"
    },
    "signed": "0xf86782012c84075bcd15825208940000000000000000000000000000000000000abc808082f4f5a0cdcff5ce8d80f6d275fd35861f29d8fa41a1af1610131a439f8dfb6354a61585a045040aeaa2cafcbd34fc99404ca6cdddd1e68acbc46a977874dd6a6b85abc1d6",
    "hash": "0xf8958c7083f67fc0d33f37f2d99c14720c353e42a80d8ad398235290ce0b9a29"
  },
  {
    "label": "anchor",
    "tx": {
      "nonce": 7,
      "gasPrice": "1000000000",
      "gas": "100000",
      "chainId": 31337,
      "to": "0x00000000000000000000000000000000000000AB",
      "data": "0x4698c11d11111111111111111111111111111111111111111111111111111111111111110000000000000000000000000000000000000000000000000000000000000060000000000000000000000000000000000000000000000000000000000000002a0000000000000000000000000000000000000000000000000000000000000011626166792d746573742d6369642d313233000000000000000000000000000000"
    },
    "signed": "0xf9010b07843b9aca00830186a09400000000000000000000000000000000000000ab80b8a44698c11d11111111111111111111111111111111111111111111111111111111111111110000000000000000000000000000000000000000000000000000000000000060000000000000000000000000000000000000000000000000000000000000002a0000000000000000000000000000000000000000000000000000000000000011626166792d746573742d6369642d31323300000000000000000000000000000082f4f6a0d4795fee1e5891e5e6b247fa2c0a988fd4935f47eb5d53530f957126cbdff4c0a079b05daa925bf31cfd8a461fbcbd0b90e7dd1ab554562e0c5e9bdeeda7d07d3d",
    "hash": "0xbc6d4e4002110bbb1b7423bdfc1fd60f956c2d4a5a2cb752cf190295d25b743e"
  },
  {
    "label": "address",
    "pk": "0x0101010101010101010101010101010101010101010101010101010101010101",
    "address": "0x1a642f0E3c3aF545E7AcBD38b07251B3990914F1"
  }
]